:100000000C94D4030C9405040C9405040C9405047E
:100010000C9405040C9405040C9405040C9405043C
:100020000C9405040C9405040C9405040C9405042C
:100030000C9405040C9405040C9405040C9405041C
:100040000C9405040C9405040C9405040C9405040C
:100050000C9405040C9405040C9405040C94B9222A
:100060000C9405040C942C1C0C94021C0C94050498
:100070000C9405040C9405040C9405040C940504DC
:100080000C9405040C9405040C9405040C940504CC
:100090000C9405040C9405040C9405040C940504BC
:1000A0000C9405040C9405040C9405040C940504AC
:1000B0000C9405040C9405040C9405040C9405049C
:1000C0000C9405040C9405040C9405040C9405048C
:1000D0000C9405040C9405040C9405040C9405047C
:1000E0000C9405045621592148214C21502190217E
:1000F0005D21612167216B216F21752179217D218E
:100100009021832187218B210C9461210C946F21F4
:100110000C94411B0C948E1B0C9456210C94502172
:100120000C945F200C945D210C944C210C947D2147
:100130000C94F91F0C94FB1A0C94D81A0C9475218A
:100140000C94E71A0C948B210C94EE1D0C94A82EA1
:100150000C9459210C9408040C946D0F0C94AE1A55
:100160000C946B210C9483210C9490210C94091B0A
:100170000C94CC050C94CC060C9487210C9448214B
:100180000C94CD060C9407040C946F1F0C941B0662
:100190000C9467210C9479215374617274210000CE
:1001A000000000003E5B4F5B3E3E6B4F6B3E1C3ED3
:1001B0007C3E1C183C7E3C181C577D571C1C5E7FE7
:1001C0005E1C00183C1800FFE7C3E7FF0018241866
:1001D00000FFE7DBE7FF30483A060E26297929269B
:1001E000407F050507407F05253F5A3CE73C5A7F85
:1001F0003E1C1C08081C1C3E7F14227F22145F5FDB
:10020000005F5F06097F017F006689956A60606014
:10021000606094A2FFA29408047E040810207E204F
:100220001008082A1C08081C2A08081E10101010A4
:100230000C1E0C1E0C30383E3830060E3E0E0600EA
:100240000000000000005F00000007000700147FAE
:10025000147F14242A7F2A12231308646236495615
:1002600020500008070300001C2241000041221C0E
:10027000002A1C7F1C2A08083E08080080703000F5
:100280000808080808000060600020100804023E0A
:100290005149453E00427F4000724949494621414B
:1002A000494D331814127F1027454545393C4A49BA
:1002B00049314121110907364949493646494929F9
:1002C0001E00001400000040340000000814224109
:1002D0001414141414004122140802015909063E92
:1002E000415D594E7C1211127C7F494949363E418D
:1002F0004141227F4141413E7F494949417F0909AE
:1003000009013E414151737F0808087F00417F4148
:10031000002040413F017F081422417F404040407F
:100320007F021C027F7F0408107F3E4141413E7FD7
:10033000090909063E4151215E7F091929462649CE
:1003400049493203017F01033F4040403F1F2040A5
:10035000201F3F4038403F631408146303047804AF
:10036000036159494D43007F414141020408102077
:10037000004141417F0402010204404040404000EE
:100380000307080020545478407F284444383844F8
:10039000444428384444287F385454541800087E74
:1003A000090218A4A49C787F0804047800447D40C6
:1003B000002040403D007F1028440000417F400065
:1003C0007C047804787C080404783844444438FC7D
:1003D0001824241818242418FC7C08040408485401
:1003E00054542404043F44243C4040207C1C2040BE
:1003F000201C3C4030403C44281028444C909090B5
:100400007C4464544C4400083641000000770000EE
:10041000004136080002010204023C2623263C1E4D
:10042000A1A161123A4040207A38545455592155BF
:1004300055794122545478422155547840205455DE
:1004400079400C1E5272123955555559395454542D
:100450005939555454580000457C410002457D42AD
:100460000001457C407D1211127DF0282528F07C8A
:10047000545545002054547C547C0A097F49324924
:100480004949323A4444443A324A4848303A414170
:10049000217A3A42402078009DA0A07D3D42424210
:1004A0003D3D4040403D3C24FF2424487E49436676
:1004B0002B2FFC2F2BFF0929F620C0887E09032053
:1004C000545479410000447D413048484A32384014
:1004D00040227A007A0A0A727D0D19317D26292977
:1004E0002F28262929292630484D40203808080879
:1004F0000808080808382F10C8ACBA2F102834FA9A
:1005000000007B000008142A142222142A14085523
:1005100000550055AA55AA55AAFF55FF55FF0000E2
:1005200000FF00101010FF00141414FF001010FF43
:1005300000FF1010F010F0141414FC001414F70055
:10054000FF0000FF00FF1414F404FC141417101F24
:1005500010101F101F1414141F00101010F00000B2
:1005600000001F101010101F10101010F0100000CD
:1005700000FF101010101010101010FF10000000DD
:10058000FF140000FF00FF00001F10170000FC0414
:10059000F414141710171414F404F40000FF00F7F7
:1005A00014141414141414F700F71414141714105A
:1005B000101F101F141414F4141010F010F0000089
:1005C0001F101F0000001F14000000FC140000F0AA
:1005D00010F01010FF10FF141414FF141010101F4F
:1005E00000000000F010FFFFFFFFFFF0F0F0F0F060
:1005F000FFFFFF0000000000FFFF0F0F0F0F0F387D
:1006000044443844FC4A4A4A347E02020606027ECA
:10061000027E0263554941633844443C04407E20D5
:100620001E2006027E020299A5E7A5991C2A492AE6
:100630001C4C7201724C304A4D4D30304878483075
:10064000BC625A463D3E494949007E0101017E2A6D
:100650002A2A2A2A44445F444440514A44404044A0
:100660004A51400000FF0103E080FF000008086BD2
:100670006B083612362436060F090F0600001818CC
:100680000000001010003040FF0101001F01011E9A
:1006900000191D1712003C3C3C3C0000000000010A
:1006A0000210202008081020401020408002010283
:1006B000010804020101020408102040808040204B
:1006C0001008040201800402018040201008040286
:1006D0000108040201010204081020408001020404
:1006E000081020408000002200250028002B002E4A
:1006F000003100340002010000050108010B010572
:10070000050505070508080808020202020A0A088A
:1007100008040404040101010101010101030303B0
:100720000303030303040707070C0C0C0C0C0C0C4D
:100730000C0202020206060606060606060B0B0B54
:100740000B0B0B0B0B00002100240027002A002DAF
:10075000003000330001010000040107010A01001C
:10076000000A0B02090C0D0E08070304010000002B
:100770000000000000000000000000000000000079
:100780000000000000000000000000121110000036
:100790000000000000000000000000000000000059
:1007A000000000000000A82E11241FBECFEFD1E2F0
:1007B000DEBFCDBF00E00CBF12E0A0E0B2E0ECE194
:1007C000F4E600E00BBF02C007900D92A439B10718
:1007D000D9F723E0A4E9B2E001C01D92AC36B2071C
:1007E000E1F713E0C4EDD3E000E006C02197010972
:1007F000802FFE010E94D12FC33DD10780E0080762
:10080000A9F70E94B3240C940C320C9400000895B4
:100810002F923F924F925F926F927F928F929F9210
:10082000AF92BF92CF92DF92EF92FF920F931F93FE
:10083000CF93DF93CDB7DEB72D970FB6F894DEBF19
:100840000FBECDBF9D878C876A30A1F4DC01549622
:100850002C9154971E968D919C911F97B8E02B9FD9
:10086000800D911D1124EC85FD859787868715865F
:100870001486F8C06D3009F4F5C0AC85BD851C96B2
:10088000CD90DC901D9718968D919C911997C81664
:10089000D906BCF0EC85FD854489242F30E08485A1
:1008A0009585F6E04F9F800D911D1124AC85BD8587
:1008B0001D969C938E931C9756964C914111AEC0F9
:1008C000D1C0EC85FD8586849784828593858816C2
:1008D000990604F7F489F983AF2EB12CC60126E0FE
:1008E000F29F800D911D1124181619069CF6C50162
:1008F00023E0880F991F2A95E1F7880D991D181696
:10090000190644F6AC85BD8557968C91811103C0BC
:10091000603B08F06F5FEC85FD850288F389E02D70
:10092000FD83EC83AC85BD8550960D90BC91A02DC8
:10093000BF83AE83B5E06B9FB001112416011A820C
:10094000FB01EC19FD09F987E8879401285F3F4F07
:100950003B872A873A81353049F0E885F985E20DF1
:10096000F31DE156FE4F54915B8301C01B822401AD
:1009700034018B8180FF13C0AC85BD85ED91FC9166
:10098000B981B13031F40084F185E02D2E813F81B1
:1009900019C00288F389E02DEE80FF801EC0EC8133
:1009A000FD812E813F81E217F307F1F0AC85BD8513
:1009B000ED91FC91B981B13059F40084F185E02DBD
:1009C0002C813D81A301B1018C859D8519950CC0B9
:1009D0000288F389E02DEC80FD8085019501A2015C
:1009E000B6018C859D851995EB81E695EB83FFEF2C
:1009F0006F1A7F0A4A0C5B1C2A853B852615370532
:100A000009F0B7CF3A813F5F3A835FEF251A350A85
:100A1000CA0CDB1C363009F09DCF3CCF4AEF4203B5
:100A2000B001439F700D1124AC85BD8518964D9182
:100A30005C911997460F571F481759079CF483E09C
:100A4000220F331F8A95E1F71E968D919C911F9777
:100A5000280F391F1F963C932E931E971D961C92AC
:100A60001E921C9781E090E02D960FB6F894DEBFA1
:100A70000FBECDBFDF91CF911F910F91FF90EF90EF
:100A8000DF90CF90BF90AF909F908F907F906F90AE
:100A90005F904F903F902F900895EF92FF920F93A9
:100AA0001F93DC011A960D911C911B9718962D919E
:100AB0003C911997ED91FC910288F389E02D7B011F
:100AC00040E050E060E070E019951F910F91FF90B9
:100AD000EF9008956F927F928F929F92AF92BF9204
:100AE000CF92DF92EF92FF920F931F93CF93DF93FA
:100AF0006C015A014801EB013B01620E731EC615E1
:100B0000D70574F4D601ED91FC910484F585E02DB0
:100B100087019401A501BE01C60119952196EFCF69
:100B2000DF91CF911F910F91FF90EF90DF90CF90C9
:100B3000BF90AF909F908F907F906F900895EF92AD
:100B4000FF920F931F93260F371F21503109DC01AD
:100B5000ED91FC910284F385E02D78018A011995CD
:100B60001F910F91FF90EF900895EF92FF920F93D6
:100B70001F93240F351F21503109DC01ED91FC91A9
:100B80000284F385E02D780189019B0119951F915D
:100B90000F91FF90EF9008956F927F928F929F92A6
:100BA000AF92BF92CF92DF92EF92FF920F931F937B
:100BB000CF93DF93EC014B015A0169013801E881C1
:100BC000F9810684F785E02D87011995A501460D69
:100BD000571D41505109E881F9810684F785E02DC0
:100BE0009601B401CE011995E881F9810484F58557
:100BF000E02D9301A501B401CE011995C80CD91CB3
:100C0000B60161507109E881F9810484F585E02D10
:100C10009301A501CE011995DF91CF911F910F91FD
:100C2000FF90EF90DF90CF90BF90AF909F908F900C
:100C30007F906F9008952F923F924F925F926F92A4
:100C40007F928F929F92AF92BF92CF92DF92EF925C
:100C5000FF920F931F93CF93DF9300D000D0CDB7B7
:100C6000DEB72C017E836D836A015901C801FC82C5
:100C7000EB824801841A950A97FE03C091948194EF
:100C8000910835012D813E81621A730A77FE03C0F7
:100C9000719461947108681479045CF43A2D2B2DD9
:100CA0005C01832F922F3D812E81DE82CD82C32E67
:100CB000D22EAD81BE81AA16BB065CF43C2D2D2D33
:100CC0006C01832F922F3D812E81BE82AD82A32E97
:100CD000B22E85012D813E81021B130B1C012C18A5
:100CE0003D0837FE03C0319421943108780117FF85
:100CF00003C03FEFE31AF30AF594E794C816D90648
:100D00002CF08FEF9FEF9A83898304C0A1E0B0E0BD
:100D1000BA83A9832D813E81A216B30624F1D201A4
:100D2000ED91FC910084F185E02D2B813C816814CC
:100D3000790424F44D815E81B60103C0A6016D8162
:100D40007E81C2011995E218F308F7FE06C02981D9
:100D50003A81C20ED31EE00EF11E8D819E81019656
:100D60009E838D83D7CF26960FB6F894DEBF0FBE35
:100D7000CDBFDF91CF911F910F91FF90EF90DF904A
:100D8000CF90BF90AF909F908F907F906F905F902B
:100D90004F903F902F900895089580E090E008953F
:100DA000CF92DF92EF92FF920F931F93CF93DF9337
:100DB000EC017A016901E98DFA8D90818DA1892379
:100DC0008083888D8111E9C48D89823081F08330E0
:100DD00019F1813071F5EFEEF0E09F01201B310B2E
:100DE000CB01E41BF50B86016F017B0113C08FEE75
:100DF00090E09C012C193D096C01C61AD70A8FE3BB
:100E000091E0AC01401B510B8C010E191F09C80168
:100E1000F6017A01B9010FC08FE391E09C012C1912
:100E20003D09861B970BFA0168018C01BA01790113
:100E300002C0CA01FB01AB8DBC8D3C912EA12323C6
:100E40002C932EB12F7C2EB97398A5982091020176
:100E5000277E20930201209102012F792093020125
:100E6000AD8DBE8D3C912FA123232C93AD8DBE8DD6
:100E70003C912BA1232B2C932EB12F7C2EB9739850
:100E8000A59A20910201277E2860209302012091DB
:100E900002012F7920930201AD8DBE8D3C912FA1CF
:100EA00023232C93AD8DBE8D3C912BA1232B2C9312
:100EB000AB8DBC8D3C912AA1232B2C934EB1272FB7
:100EC0003327D901AA0FBB1FAA0FBB1FA0734F7CEA
:100ED0004A2B4EB94EB1D901B595A795B595A795B1
:100EE000A870477F4A2B4EB944B3D901AA0FBB1F44
:100EF000A0724F7D4A2B44BB40910201D90153E0BF
:100F0000B595A7955A95E1F7A871477E4A2B40936E
:100F1000020140910201A5E0220F331FAA95E1F7DB
:100F20002076342F3F79232B20930201AD8DBE8D87
:100F30003C912FA123232C93AD8DBE8D3C912BA1F1
:100F4000232B2C934EB19B013327B901660F771FDA
:100F5000660F771F60734F7C462B4EB94EB1B901B7
:100F600075956795759567956870477F462B4EB95F
:100F700044B3B901660F771F60724F7D462B44BBA7
:100F800040910201B901B3E075956795BA95E1F713
:100F90006871477E462B409302016091020145E053
:100FA000220F331F4A95E1F720766F79262B209385
:100FB0000201AD8DBE8D3C912FA123232C93AD8DCD
:100FC000BE8D3C912BA1232B2C93AB8DBC8D3C91E2
:100FD0002EA123232C932EB12F7C2EB97398A59884
:100FE00020910201277E20930201209102012F7996
:100FF00020930201AD8DBE8D3C912FA123232C9314
:10100000AD8DBE8D3C912BA1232B2C932EB12F7C2B
:101010002EB97398A59A20910201277E286020930B
:101020000201209102012F79206220930201AD8DEF
:10103000BE8D3C912FA123232C93AD8DBE8D3C9171
:101040002BA1232B2C93AB8DBC8D3C912AA1232B60
:101050002C934EB12D2D3327B901660F771F660FE4
:10106000771F60734F7C462B4EB94EB1B901759511
:101070006795759567956870477F462B4EB944B361
:10108000B901660F771F60724F7D462B44BB4091BC
:101090000201B901A3E075956795AA95E1F768711A
:1010A000477E462B4093020140910201B5E0220F9A
:1010B000331FBA95E1F72076342F3F79232B209305
:1010C0000201AD8DBE8D3C912FA123232C93AD8DBC
:1010D000BE8D3C912BA1232B2C932EB1DD24A60198
:1010E000440F551F440F551F40732F7C242B2EB9DE
:1010F0002EB1A60155954795559547954870277F80
:10110000242B2EB924B3A601440F551F40722F7D06
:10111000242B24BB20910201A601A3E055954795FD
:10112000AA95E1F74871277E242B20930201209194
:101130000201A601B5E0440F551FBA95E1F7342F1F
:1011400030762F79C32EC22AC0920201AD8DBE8D9A
:101150003C912FA123232C93AD8DBE8D3C912BA1CF
:10116000232B2C93AB8DBC8D3C912EA123232C9350
:101170002EB12F7C2EB97398A59820910201277E5D
:1011800020930201209102012F7920930201AD8D5D
:10119000BE8D3C912FA123232C93AD8DBE8D3C9110
:1011A0002BA1232B2C932EB12F7C2EB97398A59AAB
:1011B00020910201277E28602093020120910201E4
:1011C0002F79206420930201AD8DBE8D3C912FA11B
:1011D00023232C93AD8DBE8D3C912BA1232B2C93DF
:1011E000AB8DBC8D3C912AA1232B2C934EB12F2D7E
:1011F0003327B901660F771F660F771F60734F7C27
:10120000462B4EB94EB1B9017595679575956795A1
:101210006870477F462B4EB944B3B901660F771FFC
:1012200060724F7D462B44BB40910201B90153E0EF
:10123000759567955A95E1F76871477E462B4093FF
:1012400002014091020165E0220F331F6A95E1F728
:101250002076342F3F79232B20930201AD8DBE8D54
:101260003C912FA123232C93AD8DBE8D3C912BA1BE
:10127000232B2C934EB197013327B901660F771FAB
:10128000660F771F60734F7C462B4EB94EB1B90184
:1012900075956795759567956870477F462B4EB92C
:1012A00044B3B901660F771F60724F7D462B44BB74
:1012B00040910201B901A3E075956795AA95E1F700
:1012C0006871477E462B4093020140910201B5E0D0
:1012D000220F331FBA95E1F720764F79242B209304
:1012E0000201AD8DBE8D3C912FA123232C93AD8D9A
:1012F000BE8D3C912BA1232B2C93AB8DBC8D3C91AF
:101300002EA123232C932EB12F7C2EB97398A59850
:1013100020910201277E20930201209102012F7962
:1013200020930201AD8DBE8D3C912FA123232C93E0
:10133000AD8DBE8D3C912BA1232B2C932EB12F7CF8
:101340002EB97398A59A20910201277E28602093D8
:10135000020120910201206620930201AD8DBE8D15
:101360003C912FA123232C93AD8DBE8D3C912BA1BD
:10137000232B2C93AB8DBC8D3C912AA1232B2C933A
:101380004EB1212F3327B901660F771F660F771FE4
:1013900060734F7C462B4EB94EB1B9017595679578
:1013A000759567956870477F462B4EB944B3B90170
:1013B000660F771F60724F7D462B44BB4091020140
:1013C000B90153E0759567955A95E1F76871477EC5
:1013D000462B409302014091020165E0220F331F2A
:1013E0006A95E1F72076342F3F79232B2093020171
:1013F000AD8DBE8D3C912FA123232C93AD8DBE8D41
:101400003C912BA1232B2C932EB11127A801440F23
:10141000551F440F551F40732F7C242B2EB92EB11E
:10142000A80155954795559547954870277F242BDA
:101430002EB924B3A801440F551F40722F7D242BD1
:1014400024BB20910201A80133E0559547953A95B8
:10145000E1F74871277E242B20930201209102019D
:1014600045E0000F111F4A95E1F700762F79022B16
:1014700000930201AD8DBE8D3C912FA123232C93AF
:10148000AD8DBE8D3C912BA1232B2C93AB8DBC8DB0
:101490003C912EA123232C932EB12F7C2EB973982F
:1014A000A59820910201277E20930201209102013C
:1014B0002F7920930201AD8DBE8D3C912FA1232366
:1014C0002C93AD8DBE8D3C912BA1232B2C932EB153
:1014D0002F7C2EB9739AA59820910201277E209324
:1014E0000201209102012F7920930201AD8DBE8D62
:1014F0003C912FA123232C93AD8DBE8D3C912BA12C
:10150000232B2C93AB8DBC8D3C912AA1232B2C93A8
:101510004EB12F2F3327B901660F771F660F771F44
:1015200060734F7C462B4EB94EB1B90175956795E6
:10153000759567956870477F462B4EB944B3B901DE
:10154000660F771F60724F7D462B44BB40910201AE
:10155000B90103E0759567950A95E1F76871477ED3
:10156000462B409302014091020155E0220F331FA8
:101570005A95E1F72076342F3F79232B20930201EF
:10158000AD8DBE8D3C912FA123232C93AD8DBE8DAF
:101590003C912BA1232B2C932EB1FF27AF01440F9D
:1015A000551F440F551F40732F7C242B2EB92EB18D
:1015B000AF0155954795559547954870277F242B42
:1015C0002EB924B3AF01440F551F40722F7D242B39
:1015D00024BB20910201AF01B3E055954795BA9520
:1015E000E1F74871277E242B20930201209102010C
:1015F00015E0EE0FFF1F1A95E1F7E0762F79E22B49
:10160000E0930201ED8DFE8D30812FA123232083F5
:10161000ED8DFE8D30812BA1232B2083EB8DFC8D56
:1016200030812EA1232320832EB12F7C2EB97398D5
:10163000A59820910201277E2093020120910201AA
:101640002F7920930201ED8DFE8D30812FA1232370
:101650002083ED8DFE8D30812BA1232B20832EB195
:101660002F7C2EB9739AA59820910201277E209392
:101670000201209102012F79206220930201ED8D59
:10168000FE8D30812FA123232083ED8DFE8D3081AF
:101690002BA1232B2083EB8DFC8D30812AA1232BC2
:1016A00020834EB1292F3327B901660F771F660FAC
:1016B000771F60734F7C462B4EB94EB1B9017595BB
:1016C0006795759567956870477F462B4EB944B30B
:1016D000B901660F771F60724F7D462B44BB409166
:1016E0000201B901A3E075956795AA95E1F76871C4
:1016F000477E462B4093020140910201B5E0220F44
:10170000331FBA95E1F72076342F3F79232B2093AE
:101710000201ED8DFE8D30812FA123232083ED8DDD
:10172000FE8D30812BA1232B20832EB19927AC0174
:10173000440F551F440F551F40732F7C242B2EB987
:101740002EB1AC0155954795559547954870277F23
:10175000242B2EB924B3AC01440F551F40722F7DAA
:10176000242B24BB20910201AC0163E055954795E1
:101770006A95E1F74871277E242B2093020120917E
:10178000020175E0880F991F7A95E1F78076922F14
:101790009F79892B8093020155C3813009F05FC383
:1017A000EB8DFC8D90818EA1892380838EB18F7CFF
:1017B0008EB97398A59880910201877E809302016B
:1017C000809102018F79806480930201ED8DFE8DFE
:1017D00090818FA189238083ED8DFE8D90818BA1D7
:1017E000892B8083EB8DFC8D90818AA1892B80834E
:1017F0002EB1872F9927AC01440F551F440F551F59
:1018000040732F7C242B2EB92EB1AC0155954795F2
:10181000559547954870277F242B2EB924B3AC01EA
:10182000440F551F40722F7D242B24BB20910201B1
:10183000AC01B3E055954795BA95E1F74871277E1D
:10184000242B209302012091020135E0880F991F7B
:101850003A95E1F78076922F9F79892B8093020148
:10186000ED8DFE8D90818FA189238083ED8DFE8D7E
:1018700090818BA1892B8083EB8DFC8D90818EA133
:10188000892380838EB18F7C8EB97398A5988091BF
:101890000201877E8093020180910201806680931D
:1018A0000201ED8DFE8D90818FA189238083ED8DC6
:1018B000FE8D90818BA1892B8083EB8DFC8D908197
:1018C0008AA1892B80838EB19B013327A901440F04
:1018D000551F440F551F40738F7C842B8EB98EB1DA
:1018E000A90155954795559547954870877F842B55
:1018F0008EB984B3A901440F551F40728F7D842B8C
:1019000084BB80910201A901F3E055954795FA95B2
:10191000E1F74871877E842B809302016091020178
:10192000A5E0220F331FAA95E1F720766F79262BC9
:1019300020930201ED8DFE8D90818FA189238083FC
:10194000ED8DFE8D90818BA1892B8083EB8DFC8D9D
:1019500090818EA1892380838EB18F7C80618EB926
:101960007398A59880910201877E809302018091EF
:1019700002018F79806480930201ED8DFE8D90814C
:101980008FA189238083ED8DFE8D90818BA1892B82
:101990008083EB8DFC8D90818AA1892B80832EB171
:1019A0008F2D9927AC01440F551F440F551F4073CD
:1019B0002F7C242B2EB92EB1AC015595479555950A
:1019C00047954870277F242B2EB924B3AC01440FD0
:1019D000551F40722F7D242B24BB20910201AC01A6
:1019E000E3E055954795EA95E1F74871277E242B6A
:1019F0002093020120910201F5E0880F991FFA95CA
:101A0000E1F78076922F9F79892B80930201ED8DEB
:101A1000FE8D90818FA189238083ED8DFE8D908135
:101A20008BA1892B8083EB8DFC8D90818EA18923E6
:101A300080838EB18F7C80618EB97398A5988091D8
:101A40000201877E8093020180910201806680936B
:101A50000201ED8DFE8D90818FA189238083ED8D14
:101A6000FE8D90818BA1892B8083EB8DFC8D9081E5
:101A70008AA1892B80838EB197013327A901440F56
:101A8000551F440F551F40738F7C842B8EB98EB128
:101A9000A90155954795559547954870877F842BA3
:101AA0008EB984B3A901440F551F40728F7D842BDA
:101AB00084BB80910201A90163E0559547956A9521
:101AC000E1F74871877E842B8093020140910201E7
:101AD00075E0220F331F7A95E1F720764F79242B9A
:101AE00020930201ED8DFE8D90818FA1892380834B
:101AF000ED8DFE8D90818BA1892B8083EB8DFC8DEC
:101B000090818EA1892380838EB18F7C80618EB974
:101B10007398A59880910201877E8093020180913D
:101B200002018F7980930201ED8DFE8D90818FA14E
:101B300089238083ED8DFE8D90818BA1892B8083FD
:101B4000EB8DFC8D90818AA1892B80832EB18D2D08
:101B50009927AC01440F551F440F551F40732F7C2C
:101B6000242B2EB92EB1AC01559547955595479527
:101B70004870277F242B2EB924B3AC01440F551F86
:101B800040722F7D242B24BB20910201AC0133E055
:101B9000559547953A95E1F74871277E242B209378
:101BA00002012091020145E0880F991F4A95E1F753
:101BB0008076922F9F79892B80930201ED8DFE8D87
:101BC00090818FA189238083ED8DFE8D90818BA1E3
:101BD000892B8083EB8DFC8D90818EA1892380835E
:101BE0008EB18F7C80618EB97398A5988091020127
:101BF000877E80930201809102018F7980628093B9
:101C00000201ED8DFE8D90818FA189238083ED8D62
:101C1000FE8D90818BA1892B8083EB8DFC8D908133
:101C20008AA1892B80838EB1DD249601220F331F78
:101C3000220F331F20738F7C822B8EB98EB19601B9
:101C400035952795359527952870877F822B8EB9F6
:101C500084B39601220F331F20728F7D822B84BBA9
:101C6000809102019601E3E035952795EA95E1F729
:101C70002871877E822B8093020120910201C60188
:101C8000F5E0880F991FFA95E1F780762F79C82E35
:101C9000C22AC0920201ED8DFE8D90818FA1892311
:101CA0008083ED8DFE8D90818BA1892B8083EB8DC0
:101CB000FC8D90818EA1892380838EB18F7C806280
:101CC0008EB97398A59880910201877E8093020156
:101CD000809102018F7980930201ED8DFE8D9081BC
:101CE0008FA189238083ED8DFE8D90818BA1892B1F
:101CF0008083EB8DFC8D90818AA1892B80832EB10E
:101D0000812F9927AC01440F551F440F551F407375
:101D10002F7C242B2EB92EB1AC01559547955595A6
:101D200047954870277F242B2EB924B3AC01440F6C
:101D3000551F40722F7D242B24BB20910201AC0142
:101D400073E0559547957A95E1F74871277E242BE6
:101D50002093020120910201E5E0880F991FEA9586
:101D6000E1F78076922F9F79892B80930201ED8D88
:101D7000FE8D90818FA189238083ED8DFE8D9081D2
:101D80008BA1892B8083EB8DFC8D90818EA1892383
:101D900080838EB18F7C80628EB97398A598809174
:101DA0000201877E80930201809102018F79806217
:101DB00080930201ED8DFE8D90818FA18923808318
:101DC000ED8DFE8D90818BA1892B8083EB8DFC8D19
:101DD00090818AA1892B80838EB111279801220FCF
:101DE000331F220F331F20738F7C822B8EB98EB14D
:101DF000980135952795359527952870877F822BF3
:101E00008EB984B39801220F331F20728F7D822BED
:101E100084BB80910201980193E0359527959A95AE
:101E2000E1F72871877E822B8093020120910201C5
:101E300035E0000F111F3A95E1F700762F79022B5C
:101E400000930201ED8DFE8D90818FA18923808307
:101E5000ED8DFE8D90818BA1892B80832FC08250C8
:101E6000823060F5CB01770FAA0BBB0BDC01992701
:101E70008827A601DD0C660B770B9A01AB01282B96
:101E8000392B4A2B5B2B6AE2CE010E94621CC701F0
:101E9000FF0CAA0BBB0BBC0155274427012E000CDD
:101EA000220B330BD901C801842B952BA62BB72B02
:101EB0009C01AD016BE2CE010E94621CE98DFA8D9E
:101EC000908189A1892B8083DF91CF911F910F9100
:101ED000FF90EF90DF90CF900895EF92FF920F93D5
:101EE0001F93CF93DF93EC01790177FDF0C557FD88
:101EF000EEC588859985681779070CF0E8C58A854D
:101F00009B85481759070CF0E2C5E98DFA8D908141
:101F10008DA189238083888D81116EC28D89823045
:101F200059F08330B1F08130D1F48FEE90E0841B12
:101F3000950BAB01BC0113C08FEE90E09C01261BFA
:101F4000370BB9018FE391E09C01241B350BA901EC
:101F500006C08FE391E0861B970BBA01AC01EB8DB5
:101F6000FC8D90818EA1892380838EB18F7C8EB968
:101F70007398A59880910201877E809302018091D9
:101F800002018F7980930201ED8DFE8D90818FA1EA
:101F900089238083ED8DFE8D90818BA1892B808399
:101FA0008EB18F7C8EB9739AA59880910201877E3D
:101FB00080930201809102018F7980930201ED8D5F
:101FC000FE8D90818FA189238083ED8DFE8D908180
:101FD0008BA1892B8083EB8DFC8D90818AA1892B2D
:101FE00080832EB1872F9927FC01EE0FFF1FEE0F84
:101FF000FF1FE0732F7C2E2B2EB92EB1FC01F5951F
:10200000E795F595E795E870277F2E2B2EB924B339
:10201000FC01EE0FFF1FE0722F7D2E2B24BB2091C1
:102020000201FC0103E0F595E7950A95E1F7E871F7
:10203000277E2E2B209302012091020135E0880F8C
:10204000991F3A95E1F78076922F9F79892B80939B
:102050000201ED8DFE8D90818FA189238083ED8D0E
:10206000FE8D90818BA1892B80838EB177279B0178
:10207000220F331F220F331F20738F7C822B8EB9C8
:102080008EB19B0135952795359527952870877FCB
:10209000822B8EB984B39B01220F331F20728F7D58
:1020A000822B84BB809102019B01B3E0359527957B
:1020B000BA95E1F72871877E822B80930201809187
:1020C000020115E0660F771F1A95E1F760768F79A8
:1020D000682B60930201ED8DFE8D90818FA1892385
:1020E0008083ED8DFE8D90818BA1892B8083EB8D7C
:1020F000FC8D90818EA1892380838EB18F7C8EB9D7
:102100007398A59880910201877E80930201809147
:1021100002018F7980930201ED8DFE8D90818FA158
:1021200089238083ED8DFE8D90818BA1892B808307
:102130008EB18F7C8EB9739AA59880910201877EAB
:1021400080930201809102018F7980628093020165
:10215000ED8DFE8D90818FA189238083ED8DFE8D85
:1021600090818BA1892B8083EB8DFC8D90818AA13E
:10217000892B80832EB1852F9927BC01660F771F8D
:10218000660F771F60732F7C262B2EB92EB1BC01F2
:1021900075956795759567956870277F262B2EB97D
:1021A00024B3BC01660F771F60722F7D262B24BBE2
:1021B00020910201BC01A3E075956795AA95E1F70E
:1021C0006871277E262B2093020120910201B5E041
:1021D000880F991FBA95E1F78076922F9F79892B06
:1021E00080930201ED8DFE8D90818FA189238083E4
:1021F000ED8DFE8D90818BA1892B80838EB155272B
:102200009A01220F331F220F331F20738F7C822BE2
:102210008EB98EB19A0135952795359527952870F9
:10222000877F822B8EB984B39A01220F331F2072CD
:102230008F7D822B84BB809102019A0163E03595EA
:1022400027956A95E1F72871877E822B809302019A
:102250008091020175E0440F551F7A95E1F74076B1
:102260008F79482B40930201ED8DFE8D90818FA1D7
:1022700089238083ED8DFE8D90818BA1892B8083B6
:10228000EB8DFC8D90818EA1892380838EB18F7C14
:102290008EB97398A59880910201877E8093020180
:1022A000809102018F7980930201ED8DFE8D9081E6
:1022B0008FA189238083ED8DFE8D90818BA1892B49
:1022C00080838EB18F7C8EB9739AA598809102011C
:1022D000877E80930201809102018F7980648093D0
:1022E0000201ED8DFE8D90818FA189238083ED8D7C
:1022F000FE8D90818BA1892B8083EB8DFC8D90814D
:102300008AA1892B80832EB18F2D9927AC01440F90
:10231000551F440F551F40732F7C242B2EB92EB10F
:10232000AC0155954795559547954870277F242BC7
:102330002EB924B3AC01440F551F40722F7D242BBE
:1023400024BB20910201AC0113E0559547951A95E5
:10235000E1F74871277E242B20930201209102018E
:1023600005E0880F991F0A95E1F78076922F9F79F3
:10237000892B80930201ED8DFE8D90818FA18923A1
:102380008083ED8DFE8D90818BA1892B80838EB112
:10239000FF249701220F331F220F331F20738F7CDE
:1023A000822B8EB98EB19701359527953595279556
:1023B0002870877F822B8EB984B39701220F331F39
:1023C00020728F7D822B84BB80910201970163E094
:1023D000359527956A95E1F72871877E822B809342
:1023E000020120910201C70175E0880F991F7A95BB
:1023F000E1F78076922F55C3813009F0B2C2ED89A2
:10240000E150E33028F4F0E0E050FE4F808101C05D
:1024100080E0EB8DFC8D20819EA1922390839EB164
:102420009F7C90619EB97398A59A90910201977EC6
:1024300090930201909102019F7990649093020120
:10244000ED8DFE8D20819FA192239083ED8DFE8DD9
:1024500020819BA1922B9083EB8DFC8D20819AA1F2
:10246000922B90832EB190E02F7C2EB92EB1FC01DF
:10247000F595E795F595E795E870277F2E2B2EB912
:10248000A59820910201B3E095958795BA95E1F75B
:102490008871922F977E892B80930201809102018F
:1024A0008F7980930201ED8DFE8D90818FA189231C
:1024B0008083ED8DFE8D90818BA1892B8083EB8DA8
:1024C000FC8D90818EA1892380838EB18F7C8EB903
:1024D0007398A59880910201877E80930201809174
:1024E00002018F79806480930201ED8DFE8D9081D1
:1024F0008FA189238083ED8DFE8D90818BA1892B07
:102500008083EB8DFC8D90818AA1892B80832EB1F5
:10251000872F9927FC01EE0FFF1FEE0FFF1FE073BF
:102520002F7C2E2B2EB92EB1FC01F595E795F59554
:10253000E795E870277F2E2B2EB924B3FC01EE0F10
:10254000FF1FE0722F7D2E2B24BB20910201FC0186
:10255000B3E0F595E795BA95E1F7E871277E2E2B64
:10256000209302012091020115E0880F991F1A950E
:10257000E1F78076922F9F79892B80930201ED8D70
:10258000FE8D90818FA189238083ED8DFE8D9081BA
:102590008BA1892B8083EB8DFC8D90818EA189236B
:1025A00080838EB18F7C8EB97398A598809102013B
:1025B000877E8093020180910201806680930201F0
:1025C000ED8DFE8D90818FA189238083ED8DFE8D11
:1025D00090818BA1892B8083EB8DFC8D90818AA1CA
:1025E000892B80838EB177279B01220F331F220F07
:1025F000331F20738F7C822B8EB98EB19B01359552
:102600002795359527952870877F822B8EB984B3BF
:102610009B01220F331F20728F7D822B84BB809100
:1026200002019B01F3E035952795FA95E1F72871B2
:10263000877E822B8093020180910201A5E0660FC4
:10264000771FAA95E1F760768F79682B6093020176
:10265000ED8DFE8D90818FA189238083ED8DFE8D80
:1026600090818BA1892B8083EB8DFC8D90818EA135
:10267000892380838EB18F7C80618EB97398A598F1
:1026800080910201877E80930201809102018F79FF
:10269000806480930201ED8DFE8D90818FA189234E
:1026A0008083ED8DFE8D90818BA1892B8083EB8DB6
:1026B000FC8D90818AA1892B80832EB1852F99274B
:1026C000BC01660F771F660F771F60732F7C262B68
:1026D0002EB92EB1BC017595679575956795687093
:1026E000277F262B2EB924B3BC01660F771F60729B
:1026F0002F7D262B24BB20910201BC01E3E07595C0
:102700006795EA95E1F76871277E262B20930201F1
:1027100020910201F5E0880F991FFA95E1F7807684
:10272000922F9F79892B80930201ED8DFE8D9081F0
:102730008FA189238083ED8DFE8D90818BA1892BC4
:102740008083EB8DFC8D90818EA1892380838EB157
:102750008F7C80618EB97398A59880910201877EE5
:102760008093020180910201806680930201ED8DC9
:10277000FE8D90818FA189238083ED8DFE8D9081C8
:102780008BA1892B8083EB8DFC8D90818AA1892B75
:1027900080838EB155279A01220F331F220F331FDA
:1027A00020738F7C822B8EB98EB19A013595279537
:1027B000359527952870877F822B8EB984B39A012F
:1027C000220F331F20728F7D822B84BB80910201E8
:1027D0009A0103E0359527950A95E1F72871877EE0
:1027E000822B809302018091020195E0440F551FD6
:1027F0009A95E1F740768F79482B40930201ED8D51
:10280000FE8D90818FA189238083ED8DFE8D908137
:102810008BA1892B8083EB8DFC8D90818EA18923E8
:1028200080838EB18F7C8EB9739AA59880910201B6
:10283000877E80930201809102018F79806480936A
:102840000201ED8DFE8D90818FA189238083ED8D16
:10285000FE8D90818BA1892B8083EB8DFC8D9081E7
:102860008AA1892B80832EB18F2D9927AC01440F2B
:10287000551F440F551F40732F7C242B2EB92EB1AA
:10288000AC0155954795559547954870277F242B62
:102890002EB924B3AC01440F551F40722F7D242B59
:1028A00024BB20910201AC01F3E055954795FA95C0
:1028B000E1F74871277E242B209302012091020129
:1028C000A5E0880F991FAA95E1F78076922F9F794E
:1028D000892B80930201ED8DFE8D90818FA189233C
:1028E0008083ED8DFE8D90818BA1892B80838EB1AD
:1028F000FF249701220F331F220F331F20738F7C79
:10290000822B8EB98EB197013595279535952795F0
:102910002870877F822B8EB984B39701220F331FD3
:1029200020728F7D822B84BB80910201970193E0FE
:10293000359527959A95E1F72871877E822B8093AC
:10294000020180910201970145E0220F331F4A9551
:10295000E1F7922F90768F79E92EE82AE092020132
:10296000A4C08250823008F0ACC00A851B8501509B
:1029700011092885398521503109CE010E94D006E0
:10298000E98DFA8D90818DA189238083EB8DFC8D5B
:1029900090818EA1892380838EB180638EB9739AD2
:1029A000A59880910201877E8093020180910201A7
:1029B0008F7980930201ED8DFE8D90818FA1892307
:1029C0008083ED8DFE8D90818BA1892B8083EB8D93
:1029D000FC8D90818AA1892B80838EB19F2D990FC8
:1029E000990F90738F7C892B8EB98EB19F2D969500
:1029F00096959870877F892B8EB984B39F2D990FF8
:102A000090728F7D892B84BB809102019F2D9695BA
:102A1000969596959871877E892B80930201809177
:102A200002019F2D9295990F90768F79892B809333
:102A30000201ED8DFE8D90818FA189238083ED8D24
:102A4000FE8D90818BA1892B80838EB19E2D990F55
:102A5000990F90738F7C892B8EB98EB19701369523
:102A60002795369527952870877F822B8EB984B35A
:102A70009E2D990F90728F7D892B84BB80910201CE
:102A8000970143E0369527954A95E1F72871877EAF
:102A9000822B80930201909102018E2D8295880FE6
:102AA00080769F79892B80930201ED8DFE8D908138
:102AB0008FA189238083ED8DFE8D90818BA1892B41
:102AC0008083E98DFA8D908189A1892B8083DF91A4
:102AD000CF911F910F91FF90EF9008952F923F9209
:102AE0004F925F926F927F928F929F92AF92BF921E
:102AF000CF92DF92EF92FF920F931F93CF93DF93CA
:102B0000CDB7DEB729970FB6F894DEBF0FBECDBFA5
:102B10006091600370E0FB01E150F94FE490809117
:102B20005D03A82FB0E0FD01E150F94F0491409101
:102B30005F0350E0FA01E150F94FA49020915E0349
:102B400030E0F901E150F94F2490FB01E156F94FD3
:102B5000C490FD01E156F94FD490FA01E156F94FC6
:102B6000B490F901E156F94F94919F8360E00E947F
:102B7000A52160E080915E030E94A52110E0000F76
:102B8000111F0B51194FF801A591B4918C919D2DF6
:102B90009095988789238C93312CF101EE0FFF1FBC
:102BA000CF018B51994F1C01FC01A591B4918C91DF
:102BB0009F81909589238C9361E0809160030E94AE
:102BC000A52161E080915F030E94A521F12CF7010E
:102BD000EE0FFF1FCF018B51994F7C01FC01A59196
:102BE000B4918C918C298C93EA2DF0E0EE0FFF1FAD
:102BF000EB51F94FA591B4918C91B094B822BC924D
:102C000080915D030E94E1212C0180915D030E946F
:102C1000E1215C012FEF33E03901681A790A60E0A5
:102C2000809160030E94A52160E080915F030E9473
:102C3000A521F701A591B4918C91C094C9868C21EE
:102C40008C9361E080915D030E94A521F801A5911C
:102C5000B491EC91DE2ADC9261E080915E030E94E7
:102C6000A52180915F030E94E1214C0180915F03C7
:102C70000E94E1216C018816990629F49924939405
:102C80004A145B0409F0912C61E0809160030E947A
:102C9000A521F701A591B491EC919985E923EC93D5
:102CA000F101A591B491EC918F81E82BEC93F8019F
:102CB000A591B4918C91988589238C9360E0809143
:102CC0005D030E94A52180915F030E94E1218C0198
:102CD00080915D030E94E121E0906103F090620326
:102CE000E114F104D9F1BC01990F880B990B0E94F2
:102CF0000E311B012C01B801110F880B990B0E949A
:102D00000E319B01AC01C201B1010E94643020E090
:102D100030E040E85FE30E94F72F1B012C01B30174
:102D2000072C000C880B990B0E940E31A201910117
:102D30000E949A311B012C01B70180E090E00E94B3
:102D40000C31A20191010E949A3120E030E040E86C
:102D50005AE30E949A310E94D63005C0B801681B20
:102D6000790B61507C4F911002C060E070E07A8274
:102D70006982DC82CB827E836D83262D3A814C2D45
:102D80005C817E8180E090E029960FB6F894DEBFEA
:102D90000FBECDBFDF91CF911F910F91FF90EF90AC
:102DA000DF90CF90BF90AF909F908F907F906F906B
:102DB0005F904F903F902F9008956F927F928F92E7
:102DC0009F92AF92BF92CF92DF92EF92FF920F93BA
:102DD0001F93CF93DF93FC0149015A017B01A18D21
:102DE000B28D9C9185A189238C93A38DB48D9C91E8
:102DF00086A189238C93808D823001F181111CC0C2
:102E00008EB18F7C8EB97398A59880910201877ED0
:102E100080930201809102018F7980930201A58D38
:102E2000B68D9C9187A189238C93A58DB68D9C919D
:102E300083A1892B8C9310C0833071F48EB1806391
:102E40008EB9739AA59880910201877E80930201C2
:102E5000809102018F790EC08EB18F7C8EB9739AEA
:102E6000A59880910201877E8093020180910201E2
:102E70008F79806480930201A58DB68D9C9187A186
:102E800089238C93A58DB68D9C9183A1892B8C93DE
:102E9000A38DB48D9C9182A1892B8C932EB1872F09
:102EA00090E0AC01440F551F440F551F342F307371
:102EB000C32E2F7C232B2EB92EB1AC0155954795EF
:102EC00055954795A42FA870DA2E277F2A2B2EB967
:102ED00024B3AC01440F551FD42FD0722F7D2D2B5E
:102EE00024BB20910201AC0113E0559547951A953A
:102EF000E1F7C42FC871277E2C2B2093020120916B
:102F0000020105E0880F991F0A95E1F78076922F5C
:102F10009F79982B90930201A58DB68D2C9197A146
:102F200092239C93A58DB68D2C9193A1922B9C936B
:102F30009EB1AB0155279A01220F331F220F331F79
:102F4000B22FB0737B2E9F7C9B2B9EB99EB19A01B2
:102F50003595279535952795622F6870662E977F52
:102F6000962B9EB994B39A01220F331F722F707261
:102F70009F7D972B94BB209102018A01B3E01595A8
:102F80000795BA95E1F7902F9871277E292B20930A
:102F900002012091020115E0440F551F1A95E1F737
:102FA000642F60762F79262B20930201458D568D54
:102FB000DA013C9127A123232C93458D568DDA010C
:102FC0003C9123A1232B2C93A5019401215031097D
:102FD0004109510949015A0106E0B694A794979412
:102FE00087940A95D1F78401FE1009C20150110996
:102FF00008F465C080E1A58DB68D6C9197A19623EC
:103000009C93A58DB68D6C9193A1962B9C93A58DC9
:10301000B68D6C9197A196239C93A58DB68D6C91DE
:1030200093A1962B9C93A58DB68D6C9197A1962319
:103030009C93A58DB68D6C9193A1962B9C93A58D99
:10304000B68D6C9197A196239C93A58DB68D6C91AE
:1030500093A1962B9C93A58DB68D6C9197A19623E9
:103060009C93A58DB68D6C9193A1962B9C93A58D69
:10307000B68D6C9197A196239C93A58DB68D6C917E
:1030800093A1962B9C93A58DB68D6C9197A19623B9
:103090009C93A58DB68D6C9193A1962B9C93A58D39
:1030A000B68D6C9197A196239C93A58DB68D6C914E
:1030B00093A1962B9C93815009F09DCF97CF2F73AE
:1030C000215008F4F3C1A58DB68D9C9187A1892369
:1030D0008C93A58DB68D9C9183A1892B8C93A58D06
:1030E000B68D9C9187A189238C93A58DB68D9C91DB
:1030F00083A1892B8C93E4CFFEB0BF2DBF7CFB2E28
:10310000FC28FEB8FEB0AF2DA77FFA2EFD28FEB832
:10311000F4B2BF2DBF7DFB2EFD2AF4BAF090020160
:10312000AF2DA77EFA2EFC2AF0920201F090020148
:10313000BF2DBF79FB2EF82AF0920201E58CF68CA8
:10314000D7019C90A7A0A920AC92E58CF68CD70162
:103150009C90A3A0A928AC92FEB0BF2DBF7CFB2EF3
:10316000F728FEB8FEB0AF2DA77FFA2EF628FEB8DE
:10317000F4B2BF2DBF7DFB2EF72AF4BAF090020106
:10318000AF2DA77EFA2EF92AF0920201F0900201EB
:10319000BF2DBF79FB2EF62AF0920201E58CF68C4A
:1031A000D7019C90A7A0A920AC92E58CF68CD70102
:1031B0009C90A3A0A928AC92FEB0BF2DBF7CFB2E93
:1031C000FC28FEB8FEB0AF2DA77FFA2EFD28FEB872
:1031D000F4B2BF2DBF7DFB2EFD2AF4BAF0900201A0
:1031E000AF2DA77EFA2EFC2AF0920201F090020188
:1031F000BF2DBF79FB2EF82AF0920201E58CF68CE8
:10320000D7019C90A7A0A920AC92E58CF68CD701A1
:103210009C90A3A0A928AC92FEB0BF2DBF7CFB2E32
:10322000F728FEB8FEB0AF2DA77FFA2EF628FEB81D
:10323000F4B2BF2DBF7DFB2EF72AF4BAF090020145
:10324000AF2DA77EFA2EF92AF0920201F09002012A
:10325000BF2DBF79FB2EF62AF0920201E58CF68C89
:10326000D7019C90A7A0A920AC92E58CF68CD70141
:103270009C90A3A0A928AC92FEB0BF2DBF7CFB2ED2
:10328000FC28FEB8FEB0AF2DA77FFA2EFD28FEB8B1
:10329000F4B2BF2DBF7DFB2EFD2AF4BAF0900201DF
:1032A000AF2DA77EFA2EFC2AF0920201F0900201C7
:1032B000BF2DBF79FB2EF82AF0920201E58CF68C27
:1032C000D7019C90A7A0A920AC92E58CF68CD701E1
:1032D0009C90A3A0A928AC92FEB0BF2DBF7CFB2E72
:1032E000F728FEB8FEB0AF2DA77FFA2EF628FEB85D
:1032F000F4B2BF2DBF7DFB2EF72AF4BAF090020185
:10330000AF2DA77EFA2EF92AF0920201F090020169
:10331000BF2DBF79FB2EF62AF0920201E58CF68CC8
:10332000D7019C90A7A0A920AC92E58CF68CD70180
:103330009C90A3A0A928AC92FEB0BF2DBF7CFB2E11
:10334000FC28FEB8FEB0AF2DA77FFA2EFD28FEB8F0
:10335000F4B2BF2DBF7DFB2EFD2AF4BAF09002011E
:10336000AF2DA77EFA2EFC2AF0920201F090020106
:10337000BF2DBF79FB2EF82AF0920201E58CF68C66
:10338000D7019C90A7A0A920AC92E58CF68CD70120
:103390009C90A3A0A928AC92FEB0BF2DBF7CFB2EB1
:1033A000F728FEB8FEB0AF2DA77FFA2EF628FEB89C
:1033B000F4B2BF2DBF7DFB2EF72AF4BAF0900201C4
:1033C000AF2DA77EFA2EF92AF0920201F0900201A9
:1033D000BF2DBF79FB2EF62AF0920201E58CF68C08
:1033E000D7019C90A7A0A920AC92E58CF68CD701C0
:1033F0009C90A3A0A928AC92BA94B1107DCE0150A4
:10340000110918F030E1B32E77CE2F73215008F454
:103410004DC03EB13F7C3C293EB93EB1377F3D298E
:103420003EB934B33F7D3D2B34BB30910201377E32
:103430003C2B30930201309102013F79382B3093BD
:103440000201458D568DDA011C9137A131233C9341
:10345000458D568DDA011C9133A1312B3C933EB141
:103460003F7C37293EB93EB1377F36293EB934B368
:103470003F7D372B34BB30910201377E392B30939F
:103480000201309102013F79362B30930201458DC4
:10349000568DDA011C9137A131233C93458D568D11
:1034A000DA011C9133A1312B3C93B0CFA18DB28DA9
:1034B0009C9181A1892B8C93DF91CF911F910F91CA
:1034C000FF90EF90DF90CF90BF90AF909F908F9044
:1034D0007F906F9008958F929F92AF92BF920F93BB
:1034E0001F93CF93DF93CDB7DEB7A1970FB6F894B4
:1034F000DEBF0FBECDBF19A2423008F44AE08E01F4
:103500000F5D1F4F842E912CA12CB12CA50194018D
:103510000E94AF2FE62FB901CA0101501109EA300C
:1035200014F4E05D01C0E95CD801EC93232B242B5B
:10353000252B61F7B80184E992E00E94EB1BA1966C
:103540000FB6F894DEBF0FBECDBFDF91CF911F91B4
:103550000F91BF90AF909F908F900895CF92DF9280
:10356000EF92FF920F931F93CF93DF936C017A0139
:103570008B01C0E0D0E0CE15DF0581F0D8016D9160
:103580008D01D601ED91FC910190F081E02DC601F5
:103590001995892B11F02196EECF7E01C701DF919D
:1035A000CF911F910F91FF90EF90DF90CF900895F2
:1035B000FC01538D448D252F30E0842F90E0821B39
:1035C000930B541710F0CF96089501970895FC01BE
:1035D000918D828D981761F0828DDF01A80FB11D4A
:1035E0005D968C91928D9F5F9F73928F90E008956E
:1035F0008FEF9FEF0895FC01918D828D981731F028
:10360000828DE80FF11D858D90E008958FEF9FEF7B
:103610000895FC01918D228D892F90E0805C9F4F51
:10362000821B91098F739927089584E992E00E9483
:10363000091B21E0892B09F420E0822F0895FC0169
:10364000848DDF01A80FB11DA35ABF4F2C91848D2B
:1036500090E001968F739927848FA689B7892C9360
:10366000A089B1898C91837080648C93938D848DB3
:10367000981306C00288F389E02D80818F7D8083B6
:103680000895EF92FF920F931F93CF93DF93EC0176
:1036900081E0888F9B8D8C8D981305C0E889F9890E
:1036A000808185FD26C0F62E0B8D10E00F5F1F4F29
:1036B0000F731127E02E8C8DE8120CC00FB607FC9B
:1036C000FACFE889F989808185FFF5CFCE010E9484
:1036D0001F1BF1CF8B8DFE01E80FF11DE35AFF4F49
:1036E000F0829FB7F8940B8FEA89FB898081806212
:1036F0000AC09FB7F894EE89FF896083E889F98949
:1037000080818370806480839FBF81E090E0DF913F
:10371000CF911F910F91FF90EF900895CF93DF937A
:10372000EC01888D8823C9F0EA89FB89808185FDB9
:1037300005C0A889B9898C9186FD0FC00FB607FC1A
:10374000F5CF808185FFF2CFA889B9898C9185FF5B
:10375000EDCFCE010E941F1BE7CFDF91CF910895DF
:1037600080E090E0892B21F00E94151B811125C07B
:1037700080E090E0892B41F080E090E0892B21F0FF
:103780000E94000081111CC080E090E0892B41F074
:1037900080E090E0892B21F00E940000811113C08D
:1037A00080E090E0892BA1F080E090E0892B81F00F
:1037B0000E94000081110AC008950E940000D8CF25
:1037C0000E940000E1CF0E940000EACF0C940000AC
:1037D00008950E9407326115710579F0FB0101908F
:1037E0000020E9F73197AF01461B570BDC01ED9143
:1037F000FC910280F381E02D199480E090E008951F
:103800000C94EB1B1F920F920FB60F9211240BB664
:103810000F922F933F934F935F936F937F938F9369
:103820009F93AF93BF93EF93FF9384E992E00E943D
:103830001F1BFF91EF91BF91AF919F918F917F914E
:103840006F915F914F913F912F910F900BBE0F9011
:103850000FBE0F901F9018951F920F920FB60F92E8
:1038600011240BB60F922F938F939F93EF93FF9397
:10387000E091A402F091A5028081E091AA02F0916A
:10388000AB0282FD12C090818091AD028F5F8F7379
:103890002091AE02821751F0E091AD02F0E0EC56BB
:1038A000FD4F958F8093AD0201C08081FF91EF9114
:1038B0009F918F912F910F900BBE0F900FBE0F9085
:1038C0001F9018958F929F92AF92BF92CF92DF92E6
:1038D000EF92FF92CF93DF93FC01A18DB28D9C916B
:1038E00085A189238C93A38DB48D9C9186A1892376
:1038F0008C938EB170E0DB01AA0FBB1FAA0FBB1F18
:10390000A0738F7C8A2B8EB98EB1DB01B595A795FC
:10391000B595A795A870877F8A2B8EB984B3DB01F4
:10392000AA0FBB1FA0728F7D8A2B84BBA2E0B1E0DF
:103930008C91EB0193E0D595C7959A95E1F7C87105
:10394000877E8C2B8C938C91C5E0660F771FCA9570
:10395000E1F760768F79682B6C93C58DD68D988151
:1039600087A189238883C58DD68D988183A1892BD2
:103970008883C38DD48D988182A1892B888383E22B
:1039800090E0EC012197F1F76EB1C52EDD24EE2415
:10399000FF247C2D770F770F70736F7C672B6EB9C8
:1039A0006EB149015A017AE1B694A794979487942D
:1039B0007A95D1F7782D7870677F672B6EB964B3ED
:1039C0007C2D770F70726F7D672B64BB6C91490102
:1039D0005A01CBE1B694A79497948794CA95D1F7EE
:1039E000782D7871677E672B6C936C917C2D729526
:1039F000770F70766F79C72EC62ACC92C58DD68D7B
:103A0000788167A167236883C58DD68D788163A18E
:103A1000672B6883EC012197F1F76EB16A01EE2400
:103A2000FF247C2D770F770F70736F7C672B6EB937
:103A30006EB149015A0172E1B694A79497948794A4
:103A40007A95D1F7782D7870677F672B6EB964B35C
:103A50007C2D770F70726F7D672B64BB6C91490171
:103A60005A01C3E1B694A79497948794CA95D1F765
:103A7000782D7871677E672B6C936C917C2D729595
:103A8000770F70766F79C72EC62ACC92C58DD68DEA
:103A9000788167A167236883C58DD68D788163A1FE
:103AA000672B6883EC012197F1F76EB1C32ED42EFA
:103AB000E52EFF247C2D770F770F70736F7C672BBB
:103AC0006EB96EB149015A017AE0B694A794979401
:103AD00087947A95D1F7782D7870677F672B6EB9C8
:103AE00064B37C2D770F70726F7D672B64BB6C9114
:103AF00049015A01CBE0B694A79497948794CA954C
:103B0000D1F7782D7871677E672B6C936C917C2D43
:103B10007295770F70766F79C72EC62ACC92C58DB5
:103B2000D68D788167A167236883C58DD68D78810E
:103B300063A1672B68830197F1F78EB1922F990FDC
:103B4000990F90738F7C892B8EB98EB169017A01A0
:103B5000D2E0F694E794D794C794DA95D1F79C2DE8
:103B60009870877F892B8EB984B3922F990F9072AA
:103B70008F7D892B84BB8C9169017A0193E0F69447
:103B8000E794D794C7949A95D1F79C2D9871877E26
:103B9000892B8C938C912295220F20768F79282B5C
:103BA0002C93A58DB68D9C9187A189238C93A58D8F
:103BB000B68D9C9183A1892B8C93A18DB28D9C9104
:103BC00081A1892B8C93DF91CF91FF90EF90DF90B3
:103BD000CF90BF90AF909F908F900895EF92FF92FB
:103BE0000F931F93CF93DF93EC017B01888D81119D
:103BF00056C12D892150233070F430E0F901E35C87
:103C0000FD4F808190E0220F331FF901E95CFD4FE9
:103C10002081318104C020E030E080E090E0E98D37
:103C2000FA8D50814DA145234083EB8DFC8D508151
:103C30004EA1452340834EB14F7C4EB97398A59851
:103C400040910201477E40930201409102014F7969
:103C500040930201ED8DFE8D50814FA1452340839D
:103C6000ED8DFE8D50814BA1452B40834EB14F7C95
:103C70004EB9739AA59840910201477E4093020184
:103C8000409102014F7940930201ED8DFE8D5081EC
:103C90004FA145234083ED8DFE8D50814BA1452BD7
:103CA0004083EB8DFC8D50814AA1452B40834EB162
:103CB0004F7C4EB97398A59840910201477E40937E
:103CC0000201409102014F7940930201ED8DFE8D7A
:103CD00050814FA145234083ED8DFE8D50814BA136
:103CE000452B40834EB1BC01660F771F660F771FCF
:103CF00060734F7C462B4EB94EB1BC0175956795EC
:103D0000759567956870477F462B4EB9A598409189
:103D10000201BC01F3E075956795FA95E1F76871CA
:103D2000477E462B4093020140910201A5E0880F97
:103D3000991FAA95E1F78076942F9F79892B80931C
:103D40000201ED8DFE8D90818FA189238083ED8D01
:103D5000FE8D90818BA1892B8083EB8DFC8D9081D2
:103D60008EA1892380838EB18F7C8EB97398A5989C
:103D700080910201877E80930201809102018F79F8
:103D800080930201ED8DFE8D90818FA18923808328
:103D9000ED8DFE8D90818BA1892B80838EB18F7CE0
:103DA0008EB9739AA59880910201877E8093020153
:103DB000809102018F79806280930201ED8DFE8DEA
:103DC00090818FA189238083ED8DFE8D90818BA1C1
:103DD000892B8083EB8DFC8D90818AA1892B808338
:103DE0008EB18F7C8EB97398A59880910201877EE1
:103DF0008093020180910201932F9295990F907602
:103E00008F79892B80930201ED8DFE8D90818FA19A
:103E100089238083ED8DFE8D90818BA1892B8083FA
:103E20004EB1C90199279C01220F331F220F331F66
:103E3000322F3073242F2F7C232B2EB92EB1AC01BF
:103E400055954795559547954870277F242B2EB952
:103E500024B3AC01440F551F40722F7D242B24BB8B
:103E600020910201277E209302012091020135E07A
:103E7000880F991F3A95E1F78076922F9F79892BC9
:103E800080930201ED8DFE8D90818FA18923808327
:103E9000ED8DFE8D90818BA1892B808312C0815086
:103EA000833078F40A851B850150110928853985EE
:103EB0002150310940E050E060E070E0CE010E9406
:103EC000D00620E03CE241E050E0B701CE01DF91B6
:103ED000CF911F910F91FF90EF900C94DD168F9270
:103EE0009F92AF92BF92CF92DF92EF92FF920F9389
:103EF0001F93CF93DF93EC014701121613060CF0CA
:103F00006BC0101611060CF067C0A885B9856A173A
:103F10007B070CF061C0CA84DB844C155D050CF096
:103F20005BC07901E60EF71EC701019797FD54C0EB
:103F30005801A40EB51EF5013197F7FD4DC077FF6E
:103F400049C060E070E057FD02C0580102C040E087
:103F500050E08A179B072CF0CD0101977D01E61AEE
:103F6000F70AEC15FD052CF0F60131975601A41A5D
:103F7000B50A8F019C01CE010E94D0069701D501A0
:103F80000E94D92F9B01AC01B401CE010E94DD1625
:103F9000888D811110C00A851B8501501109288563
:103FA00039852150310940E050E060E070E0CE01F9
:103FB0000E94D00611C0CE01DF91CF911F910F91C9
:103FC000FF90EF90DF90CF90BF90AF909F908F9039
:103FD0000C9403237901B7CFDF91CF911F910F91FB
:103FE000FF90EF90DF90CF90BF90AF909F908F9019
:103FF0000895CF92DF92EF92FF920F931F93CF938A
:10400000DF93EC016801121613060CF04FC077FD28
:104010004DC088859985681779070CF047C08A8557
:104020009B85481759070CF041C07901E40EF51E35
:1040300087010150110917FD39C057FF35C040E015
:1040400050E00817190734F08C01015011097C0168
:10405000E41AF50A9B01CE010E94D0069701FF0CDD
:10406000440B550BB601CE010E94DD16888D8111DF
:1040700010C00A851B8501501109288539852150FA
:10408000310940E050E060E070E0CE010E94D006CF
:104090000DC0CE01DF91CF911F910F91FF90EF9056
:1040A000DF90CF900C9403237901CBCFDF91CF9198
:1040B0001F910F91FF90EF90DF90CF900895CF92D6
:1040C000DF92EF92FF920F931F93CF93DF93EC0158
:1040D0006801121613060CF04EC057FD4CC08A85BD
:1040E0009B85481759070CF046C0E885F9856E177F
:1040F0007F070CF040C07901E60EF71EC70101975B
:1041000097FD39C077FF35C060E070E08E179F07DC
:104110002CF0CF0101977F01E61AF70A8A019C0172
:10412000CE010E94D0069701FF0C440B550BB6013F
:10413000CE010E94DD16888D811110C00A851B8575
:1041400001501109288539852150310940E050E09E
:1041500060E070E0CE010E94D0060DC0CE01DF917C
:10416000CF911F910F91FF90EF90DF90CF900C9423
:1041700003237901CBCFDF91CF911F910F91FF9056
:10418000EF90DF90CF9008953FB7F8948091680347
:1041900090916903A0916A03B0916B0326B5A89B27
:1041A00005C02F3F19F00196A11DB11D3FBFBA2FC9
:1041B000A92F982F8827820F911DA11DB11DBC0129
:1041C000CD0142E0660F771F881F991F4A95D1F7EE
:1041D0000895CF92DF92EF92FF92CF93DF936B011E
:1041E0007C016DE284E992E00E94411BEC016627AC
:1041F0007727CB016C197D098E099F094AE00E943F
:104200006B1A8C0F9D1FDF91CF91FF90EF90DF9085
:10421000CF900895BC01990F880B990B97FD0C94D2
:10422000E9204AE00C946B1ACF93DF93BC0181E341
:1042300093E00E94EB1BEC0160E472E081E393E009
:104240000E94EB1B8C0F9D1FDF91CF910895362F9D
:1042500090E0FC01E15AF84F4491FC01E156F94F1E
:104260002491FC01E150F94F9491992309F46CC019
:10427000442309F455C050E0FA013197E231F105C9
:1042800008F04EC08827EE58FF4F8F4F0C94D12F67
:10429000809180008F7707C0809180008F7D03C060
:1042A00080918000877F809380003AC084B58F77AB
:1042B00002C084B58F7D84BD33C08091B0008F77FC
:1042C00003C08091B0008F7D8093B00029C08091A1
:1042D00090008F7707C0809190008F7D03C0809100
:1042E0009000877F809390001BC08091A0008F7703
:1042F00007C08091A0008F7D03C08091A000877FC0
:104300008093A0000DC0809120018F7707C080911D
:1043100020018F7D03C080912001877F8093200141
:10432000E92FF0E0EE0FFF1FEB51F94FA591B4918B
:104330009FB7F894311104C08C912095282302C0B6
:10434000EC912E2B2C939FBF0895CF93DF9390E099
:10435000FC01E156F94F2491FC01E150F94F8491A1
:10436000882361F190E0880F991FFC01EB5BF84F07
:10437000C591D491FC01EB51F94FA591B491611114
:1043800009C09FB7F8948881209582238883EC9197
:104390002E230BC0623061F49FB7F8948881322FCE
:1043A000309583238883EC912E2B2C939FBF06C0DE
:1043B0008FB7F894E8812E2B28838FBFDF91CF91A0
:1043C0000895863308F0865390917B00282F28703B
:1043D000977F922B90937B008770806480937C0002
:1043E00080917A00806480937A0080917A0086FDC3
:1043F000FCCF809178002091790090E0922B089575
:104400008F929F92AF92BF92CF92DF92EF92FF92E4
:104410006B017C010E94C4204B015C01C114D104DA
:10442000E104F104F1F00E94C420DC01CB01881901
:104430009909AA09BB09883E9340A105B10570F30B
:1044400021E0C21AD108E108F10888EE880E83E065
:10445000981EA11CB11CC114D104E104F10419F788
:10446000DDCFFF90EF90DF90CF90BF90AF909F9007
:104470008F900895E0914A03F0914B0390818091D1
:104480005203892B8083E0914E03F0914F0390817A
:1044900080915403892B8083E0915003F091510364
:1044A000908180915503892B808380915A038823C2
:1044B00071F060E00E94272162E070E080E090E00F
:1044C0000E94002261E080915A030E942721E0911E
:1044D0004A03F0914B039081809156038923808396
:1044E000E0914C03F0914D03908180915703892313
:1044F00080838EB18F7C8EB97398A59880910201CC
:10450000877E80930201809102018F79809302015E
:10451000E0914E03F0914F039081809158038923DD
:104520008083E0914E03F0914F039081809154037A
:10453000892B808383E0E0914E03F0914F0320812B
:104540009091580392239083E0914E03F0914F0392
:10455000208190915403922B9083815061F7E091D8
:104560004A03F0914B03908180915203892B808301
:1045700008951F920F920FB60F9211242F933F931D
:104580008F939F93AF93BF93809164039091650342
:10459000A0916603B09167033091630323E0230F7A
:1045A0002D3720F40196A11DB11D05C026E8230F6B
:1045B0000296A11DB11D2093630380936403909321
:1045C0006503A0936603B09367038091680390919D
:1045D0006903A0916A03B0916B030196A11DB11DFF
:1045E0008093680390936903A0936A03B0936B036D
:1045F000BF91AF919F918F913F912F910F900FBEDF
:104600000F901F901895CF93DF93FC01A18DB28D71
:104610009C9185A189238C9380859185A38DB48DF0
:104620003C9126A123232C932EB12F7C20612EB9FF
:104630007398A598A2E0B1E02C91277E2C932C9141
:104640002F792C93C58DD68D388127A123232883DC
:10465000C58DD68D388123A1232B2883C38DD48D7E
:10466000388122A1232B28834EB19C01215031098E
:10467000232F3327B901660F771F660F771F6073EB
:10468000942F9F7C962B9EB99EB1A9015595479575
:10469000559547954870977F942B9EB994B3A9017F
:1046A000440F551F40729F7D942B94BB9C91A90190
:1046B000C3E055954795CA95E1F74871977E942BCD
:1046C0009C939C91D5E0220F331FDA95E1F7207679
:1046D0009F79292B2C93C58DD68D288197A1922364
:1046E0009883C58DD68D288193A1922B9883C38DF5
:1046F000D48D288196A1922398839EB19F7C90614E
:104700009EB97398A5989C91977E9C939C919F7954
:1047100090629C93C58DD68D288197A19223988312
:10472000C58DD68D288193A1922B9883C38DD48D6E
:10473000288192A1922B98832EB1815090E0AC01F8
:10474000440F551F440F551F40732F7C242B2EB947
:104750002EB1AC0155954795559547954870277FE3
:10476000242B2EB924B3AC01440F551F40722F7D6A
:10477000242B24BB2C91AC01C3E055954795CA95D9
:10478000E1F74871277E242B2C932C91D5E0880FDC
:10479000991FDA95E1F78076922F9F79892B8C9378
:1047A000C58DD68D988187A189238883C58DD68DA7
:1047B000988183A1892B888382859385C38DD48D2D
:1047C000388126A1232328832EB12F7C20622EB985
:1047D0007398A5982C91277E2C932C912F792C934C
:1047E000C58DD68D388127A123232883C58DD68DED
:1047F000388123A1232B2883C38DD48D388122A116
:10480000232B28834EB19C0121503109232F3327BC
:10481000B901660F771F660F771F6073942F9F7C17
:10482000962B9EB99EB1A9015595479555954795EB
:104830004870977F942B9EB994B3A901440F551FDC
:1048400040729F7D942B94BB9C91A901C3E0559528
:104850004795CA95E1F74871977E942B9C939C915C
:10486000D5E0220F331FDA95E1F720769F79292BC7
:104870002C93C58DD68D288197A192239883C58DC1
:10488000D68D288193A1922B9883C38DD48D2881B6
:1048900096A1922398839EB19F7C90629EB9739853
:1048A000A5989C91977E9C939C919F7990629C93F4
:1048B000C58DD68D288197A192239883C58DD68DDD
:1048C000288193A1922B9883C38DD48D288192A1A6
:1048D000922B98832EB1815090E0AC01440F551F6C
:1048E000440F551F40732F7C242B2EB92EB1AC01E1
:1048F00055954795559547954870277F242B2EB998
:1049000024B3AC01440F551F40722F7D242B24BBD0
:104910002C91AC01C3E055954795CA95E1F74871D4
:10492000277E242B2C932C91D5E0880F991FDA95A4
:10493000E1F78076922F9F79892B8C93A58DB68D88
:104940009C9187A189238C93A58DB68D9C9183A181
:10495000892B8C93A18DB28D9C9181A1892B8C93F5
:10496000DF91CF910895CF93DF9300D000D0CDB7E2
:10497000DEB7789484B5826084BD84B5816084BDDF
:1049800085B5826085BD85B5816085BD80916E00ED
:10499000816080936E00109281008091810082601E
:1049A000809381008091810081608093810080915B
:1049B00080008160809380008091B100846080934A
:1049C000B1008091B00081608093B000809191002F
:1049D000826080939100809191008160809391002A
:1049E000809190008160809390008091A10082600E
:1049F0008093A1008091A10081608093A1008091AB
:104A0000A00081608093A00080912101826080934A
:104A100021018091210181608093210180912001F9
:104A200081608093200180917A00846080937A0075
:104A300080917A00826080937A0080917A00816010
:104A400080937A0080917A00806880937A00109237
:104A5000C100E091A402F091A50282E08083E09180
:104A6000A002F091A1021082E091A202F091A302B3
:104A70008FEC80831092AC02E091A802F091A90221
:104A800086E08083E091A602F091A7028081806198
:104A90008083E091A602F091A702808188608083E4
:104AA000E091A602F091A702808180688083E09166
:104AB000A602F091A70280818F7D808308E911E032
:104AC000F80164916111E8C460E472E084E992E065
:104AD0000E94EB1B0E943A220E943A2268EC70E08E
:104AE00080E090E00E94002212E0B12EB0924903D3
:104AF000E0914A03F0914B03908180915603892302
:104B00008083E0914C03F0914D0390818091570395
:104B1000892380838EB18F7C8EB97398A5988091FC
:104B20000201877E80930201809102018F79806269
:104B300080930201E0914E03F0914F0390818091A8
:104B4000580389238083E0914E03F0914F039081B5
:104B500080915403892B8083E0914C03F0914D03A5
:104B6000908180915303892B80838EB18F7C8EB985
:104B70007398A59880910201877E809302018091AD
:104B800002018F7980930201E0914E03F0914F036F
:104B900090818091580389238083E0914E03F091A6
:104BA0004F03908180915403892B808362E370E0EE
:104BB00080E090E00E940022E0914C03F0914D03D0
:104BC000908180915703892380838EB18F7C80628E
:104BD0008EB9739AA59880910201877E8093020115
:104BE000809102018F7980930201E0914E03F09150
:104BF0004F0390818091580389238083E0914E0375
:104C0000F0914F03908180915403892B8083E09130
:104C10004C03F0914D03908180915303892B808345
:104C20008EB18F7C8EB97398A59880910201877E92
:104C300080930201809102018F7980930201E091BB
:104C40004E03F0914F039081809158038923808314
:104C5000E0914E03F0914F03908180915403892B92
:104C60008083E0914C03F0914D0390818091570334
:104C7000892380838EB18F7C8EB97398A59880919B
:104C80000201886180930201809102018F798093F3
:104C90000201E0914E03F0914F03908180915803FF
:104CA00089238083E0914E03F0914F03908180919E
:104CB0005403892B8083E0914C03F0914D03908144
:104CC00080915303892B80838EB18F7C8EB9739A28
:104CD000A59880910201877E809302018091020154
:104CE000806680930201E0914E03F0914F03908122
:104CF0008091580389238083E0914E03F0914F0304
:104D0000908180915403892B8083E0914C03F09132
:104D10004D03908180915703892380838EB18F7CCE
:104D20008EB97398A59880910201886180930201E1
:104D3000809102018F79806280930201E0914E039D
:104D4000F0914F0390818091580389238083E091F3
:104D50004E03F0914F03908180915403892B8083FF
:104D6000E0914C03F0914D03908180915303892B86
:104D700080838EB18F7C8EB97398A59A8091020141
:104D8000877E80930201809102018F7980930201D6
:104D9000E0914E03F0914F03908180915803892355
:104DA0008083E0914E03F0914F03908180915403F2
:104DB000892B8083E0914C03F0914D039081809189
:104DC0005703892380838EB18F7C8EB97398A59801
:104DD00080910201877E80930201809102018F7988
:104DE00080930201E0914E03F0914F0390818091F6
:104DF000580389238083E0914E03F0914F03908103
:104E000080915403892B80838EB18F7C80618EB911
:104E10007398A59880910201886180930201809126
:104E200002018F79806280930201E0914E03F0913C
:104E30004F0390818091580389238083E0914E0332
:104E4000F0914F03908180915403892B8083E091EE
:104E50004C03F0914D03908180915303892B808303
:104E60008EB18F7C80628EB9739AA5988091020171
:104E7000877E809302018091020180668093020107
:104E8000E0914E03F0914F03908180915803892364
:104E90008083E0914E03F0914F0390818091540301
:104EA000892B80838EB18F7C80628EB9739AA5988E
:104EB00080910201877E80930201809102018066C9
:104EC00080930201E0914E03F0914F039081809115
:104ED000580389238083E0914E03F0914F03908122
:104EE00080915403892B8083E0914C03F0914D0312
:104EF000908180915703892380838EB18F7C80615C
:104F00008EB97398A59880910201886180930201FF
:104F100080910201806680930201E0914E03F0913E
:104F20004F0390818091580389238083E0914E0341
:104F3000F0914F03908180915403892B8083E091FD
:104F40004C03F0914D03908180915303892B808312
:104F50008EB18F7C8EB97398A5988091020188617B
:104F600080930201809102018F7980930201E09188
:104F70004E03F0914F0390818091580389238083E1
:104F8000E0914E03F0914F03908180915403892B5F
:104F90008083E0914C03F0914D0390818091570301
:104FA000892380838EB18F7C80618EB9739AA59A94
:104FB00080910201877E80930201809102018F79A6
:104FC000806480930201E0914E03F0914F03908141
:104FD0008091580389238083E0914E03F0914F0321
:104FE000908180915403892B8083E0914C03F09150
:104FF0004D03908180915303892B80838EB18F7CE8
:1050000080628EB97398A59880910201877E809303
:105010000201809102018F7980930201E0914E0399
:10502000F0914F0390818091580389238083E09110
:105030004E03F0914F03908180915403892B80831C
:10504000E0914C03F0914D039081809157038923A7
:1050500080838EB18F7C80628EB9739AA59A80917D
:105060000201877E80930201809102018F79806422
:1050700080930201E0914E03F0914F039081809163
:10508000580389238083E0914E03F0914F03908170
:1050900080915403892B8083E0914C03F0914D0360
:1050A000908180915303892B80838EB18F7C8061A6
:1050B0008EB97398A59A80910201877E886080934B
:1050C0000201809102018F79806280930201E09158
:1050D0004E03F0914F039081809158038923808380
:1050E000E0914E03F0914F03908180915403892BFE
:1050F0008083E0914C03F0914D03908180915703A0
:10510000892380838EB18F7C8EB97398A598809106
:105110000201877E80930201809102018F79809342
:105120000201E0914E03F0914F039081809158036A
:1051300089238083E0914E03F0914F039081809109
:105140005403892B80838EB18F7C8EB9739AA59A74
:1051500080910201877E806180930201809102012B
:105160008F79806280930201E0914E03F0914F03AA
:1051700090818091580389238083E0914E03F091C0
:105180004F03908180915403892B8083E0914C03DD
:10519000F0914D03908180915303892B80838EB1D0
:1051A0008F7C8EB97398A59880910201877E809339
:1051B0000201809102018F7980930201E0914E03F8
:1051C000F0914F0390818091580389238083E0916F
:1051D0004E03F0914F03908180915403892B80837B
:1051E0008EB18F7C80628EB97398A59A80910201EE
:1051F000877E809302018091020180668093020184
:10520000E0914E03F0914F039081809158038923E0
:105210008083E0914E03F0914F039081809154037D
:10522000892B8083E0914C03F0914D039081809114
:105230005703892380838EB18F7C80618EB9739AE6
:10524000A59A80910201877E8061809302018091FE
:105250000201806680930201E0914E03F0914F03BA
:1052600090818091580389238083E0914E03F091CF
:105270004F03908180915403892B8083E0914C03EC
:10528000F0914D03908180915303892B80838EB1DF
:105290008F7C80618EB97398A59880910201877E7A
:1052A0008093020180910201806680930201E09167
:1052B0004E03F0914F03908180915803892380839E
:1052C000E0914E03F0914F03908180915403892B1C
:1052D0008083E0914C03F0914D03908180915703BE
:1052E000892380838EB18F7C8EB97398A59A809123
:1052F0000201877E80930201809102018F79806292
:1053000080930201E0914E03F0914F0390818091D0
:10531000580389238083E0914E03F0914F039081DD
:1053200080915403892B8083E0914C03F0914D03CD
:10533000908180915303892B80838EB18F7C8EB9AD
:105340007398A59880910201877E809302018091D5
:1053500002018F7980930201E0914E03F0914F0397
:1053600090818091580389238083E0914E03F091CE
:105370004F03908180915403892B808366E970E00C
:1053800080E090E00E940022E0914C03F0914D03F8
:10539000908180915703892380838EB18F7C8062B6
:1053A0008EB9739AA59880910201877E809302013D
:1053B000809102018F79806280930201E0914E0317
:1053C000F0914F0390818091580389238083E0916D
:1053D0004E03F0914F03908180915403892B808379
:1053E000E0914C03F0914D03908180915303892B00
:1053F00080838EB18F7C8EB97398A59880910201BD
:10540000877E80930201809102018F79809302014F
:10541000E0914E03F0914F039081809158038923CE
:105420008083E0914E03F0914F039081809154036B
:10543000892B808364EF71E080E090E00E9400227D
:105440000FE311E02FEE30E040E050E060E070E06C
:1054500081E393E00E94D006B09246038091350329
:105460009091360390933A038093390380913703E8
:105470009091380390933C0380933B03E0914A035F
:10548000F0914B0390818091560389238083809112
:105490004903882359F0DCC084E992E00E94411B53
:1054A0000F5F1F4F892B09F00BCB0ECBE09146030A
:1054B000E150E33040F4F0E0EE0FFF1FED5FFD4FF1
:1054C0004081518102C040E350E1E0914C03F091F2
:1054D0004D03908180915703892380838EB18F7C07
:1054E0008EB97398A59880910201877E80930201FE
:1054F000809102018F7980930201E0914E03F09137
:105500004F0390818091580389238083E0914E035B
:10551000F0914F03908180915403892B80838EB149
:105520008F7C8EB97398A59880910201877E8093B5
:10553000020180910201806680930201E0914E0396
:10554000F0914F0390818091580389238083E091EB
:105550004E03F0914F03908180915403892B8083F7
:10556000E0914C03F0914D03908180915303892B7E
:1055700080839EB19F7C9EB97398A59A90910201F9
:10558000977E90930201909102019F79909302017E
:10559000E0914E03F0914F0380819091580398233E
:1055A0009083E0914E03F0914F03808190915403DA
:1055B000982B90832EB1CA019927AC01440F551F37
:1055C000440F551F40732F7C242B2EB92EB1AC01F4
:1055D00055954795559547954870277F242B2EB9AB
:1055E00024B3880F991F8072922F9F7D892B84BBD3
:1055F00080910201877E80930201809102018F7960
:1056000080930201E0914E03F0914F0390818091CD
:10561000580389238083E0914E03F0914F039081DA
:1056200080915403892B808300913B0310913C03AC
:10563000015011092091390330913A032150310969
:1056400040E050E060E070E081E393E00E94D0062B
:1056500080914903813009F077C0E0914603E15021
:10566000E33028F4F0E0E050FE4F808101C080E09C
:10567000E0914C03F0914D032081909157039223C8
:1056800090839EB19F7C90619EB97398A59A9091EA
:105690000201977E90930201909102019F7990649C
:1056A00090930201E0914E03F0914F03208190917D
:1056B000580392239083E0914E03F0914F03208191
:1056C00090915403922B9083E0914C03F0914D0301
:1056D000208190915303922B90832EB190E02F7CE8
:1056E0002EB92EB1AC015595479555954795487003
:1056F000277F242B2EB9A5982091020173E0959560
:1057000087957A95E1F78871922F977E892B809300
:105710000201809102018F7980930201E0914E0392
:10572000F0914F0390818091580389238083E09109
:105730004E03F0914F03908180915403892B808315
:1057400081E393E00E94032380914903823009F0B2
:1057500096C080914603813089F060F0823031F04C
:10576000833079F428E2C22ED12C0BC038E4C32E4A
:10577000D12C07C098E8C92ED12C03C088EEC82EC2
:10578000D12CE0914C03F0914D039081809157030F
:10579000892380838EB18F7C80618EB9739AA59A9C
:1057A00080910201877E80930201809102018F79AE
:1057B000806480930201E0914E03F0914F03908149
:1057C0008091580389238083E0914E03F0914F0329
:1057D000908180915403892B8083E0914C03F09158
:1057E0004D03908180915303892B80838EB18F7CF0
:1057F00080628EB98EB1960136952795369527959C
:105800002870877F822B8EB9A5988091020196011E
:1058100003E0369527950A95E1F7922F9871877ED8
:10582000C92EC82AC0920201809102018F7980930B
:105830000201E0914E03F0914F0390818091580353
:1058400089238083E0914E03F0914F0390818091F2
:105850005403892B808300913B0310913C0301503A
:1058600011092091390330913A032150310940E068
:1058700050E060E070E081E393E00E94D006809108
:105880004903833009F094C080914603813081F050
:1058900058F0823031F0833071F4B0E6EB2EF12C09
:1058A0000AC0E12CF12C07C0A0ECEA2EF12C03C0B9
:1058B000F0EAEF2EF12CE0914C03F0914D03908132
:1058C00080915703892380838EB18F7C80618EB94C
:1058D000739AA59A80910201877E8093020180913C
:1058E00002018F79806480930201E0914E03F09170
:1058F0004F0390818091580389238083E0914E0368
:10590000F0914F03908180915403892B8083E09123
:105910004C03F0914D03908180915303892B808338
:105920008EB18F7C8EB98EB19701369527953695BD
:1059300027952870877F822B8EB9A59880910201C8
:105940009701E3E036952795EA95E1F7922F987154
:10595000877EE92EE82AE0920201809102018F7988
:1059600080930201E0914E03F0914F03908180916A
:10597000580389238083E0914E03F0914F03908177
:1059800080915403892B808300913B0310913C0349
:10599000015011092091390330913A032150310906
:1059A00040E050E060E070E081E393E00E94D006C8
:1059B000E0903903F0903A0300913B0310913C03CF
:1059C0006FEF77E081E393E00E94EE1D055111092E
:1059D000970125513109E12CF12C4AE050E06AE0B1
:1059E00070E081E393E00E946F1F0FEF1FEF1093B1
:1059F000440300934303109342030093410382E264
:105A000090E090933E0380933D0386E490E0909372
:105A1000400380933F0383E08093450383E492E057
:105A20000E94142187E690E090933E0380933D030B
:105A300088E790E09093400380933F0382E0809357
:105A400045038EE492E00E94142187E290E0909357
:105A50003E0380933D0380EA90E09093400380935F
:105A60003F0384E0809345038FE198EF90934403D4
:105A700080934303909342038093410382E592E035
:105A80000E94142188E490E090933E0380933D03AC
:105A90008FEF90E09093400380933F0381E08093E9
:105AA0004503109344030093430310934203009370
:105AB00041038AE592E00E9414210E946E156D83D5
:105AC0007E8361E087E30E94A52161E088E30E9474
:105AD000A5218D819E810197883E934070F783E0D8
